:0300000002000EED
:10000B000202F17581707438716B7181740E716BB2
:10001B0071817401716B71817406716B7181748064
:10002B00716B7181900500E493600A1203761203E1
:10003B0081A3020032C3E4D2B2D2B3D2B5C2B0C2F2
:10004B00B1C2B4C2A67A0274C0716B71817414719F
:10005B006B71817414716B71817414716B7181C2CA
:10006B00B0C2B1C2B4C2A630B2F530B3F230B5EF04
:10007B00718130B20830B30530B50280F371813035
:10008B00B20830B30530B50280E6C2B0D2B1D2B4FB
:10009B00D2A630B23C30B33930B536C2B1D2B0D2C1
:1000AB00B4D2A630B23030B32D30B52AC2B4D2B1EF
:1000BB00D2B0D2A630B22430B32130B51EC2A6D2F4
:1000CB00B1D2B0D2B430B21830B31530B512020081
:1000DB007B90051F800F900522800A9005258005D7
:1000EB00900528800030B208A330B304A330B500CC
:1000FB00E493FFF5F0C007120376E5F0120381DA03
:10010B0008120381120381800302006AC3E4D2B296
:10011B00D2B3D2B5C2B0C2B1C2B4C2A67A02741401
:10012B00716B71817414716B71817414716B71814A
:10013B007414716B7181C2B0C2B1C2B4C2A630B2B9
:10014B00F530B3F230B5EF718130B20830B3053012
:10015B00B50280F3718130B20830B30530B502803F
:10016B00E6C2B0D2B1D2B4D2A630B23C30B3393041
:10017B00B536C2B1D2B0D2B4D2A630B23030B32D74
:10018B0030B52AC2B4D2B1D2B0D2A630B22430B379
:10019B002130B51EC2A6D2B4D2B1D2B030B2183013
:1001AB00B31530B51202015290051F800F90052236
:1001BB00800A9005258005900528800030B208A3A1
:1001CB0030B304A330B500E493FFF5F0C00712037E
:1001DB0076E5F0120381DA081203811203818003A2
:1001EB00020141D007D006D005D004EC943075F055
:1001FB000AA4FCED94302CD2D3F9C2D3EE94307513
:10020B00F00AA4FEEF94302ED2D3FFC2D320B6193E
:10021B00C2A47401716B718190051DE49360261269
:10022B000376120381A302022620B7E1C2A5740153
:10023B00716B718190051DE493600A1203761203B2
:10024B0081A30202427401716B718190050EE493DC
:10025B00600A120376120381A3020259758901C247
:10026B00A3D2A3C28D758CFF758A0F75A882D28C11
:10027B00C2A2D2A274C0716B71817406716B718151
:10028B00E58012038A74C012036B1203817414127B
:10029B00036B741412036B741412036B7414120338
:1002AB006B741412036B7406716B71817A04E71211
:1002BB00037612038119DAF6741412036B74141299
:1002CB00036B1203817406716B71811203AC7A0498
:1002DB00E712037612038119DAF6120381120381F6
:1002EB0012038102027B30A40330A52EE58075F04A
:1002FB0002A4FDD2D375F003E995F0F5F0C2D3ED6E
:10030B00B5F000400DD2D389F0C2D3B5F000500642
:10031B00802F7428802E74F5802AE58075F002A456
:10032B00FDD2D38FF0C2D3B5F000400DD2D389F0FC
:10033B00C2D3B5F000500680087428800774F5808E
:10034B0003EDC333F4FF12035DD2A3C28D8F8CD2A6
:10035B008C32C2A374FFC39FF58C308DFDC28D22EE
:10036B00F590C2A0D2A17181C2A122F590D2A0D2E8
:10037B00A17181C2A1227B327CFFDCFEDBFA2278E9
:10038B0090C33375F00A84A6F00875F00A84A6F0C2
:10039B0008F6789079957A03E64430F70809DAF88D
:1003AB00227890E580C33375F0058475F009A47548
:1003BB00F02025F075F00A84A6F00875F00A84A6E3
:1003CB00F008F6789079957A03E64430F70809DA65
:0203DB00F82206
:100500002020204D4158207C204D494E3A00544532
:100510004D503A2020432020202020460020003744
:0B05200038393435363132333030309A
:00000001FF
